{
  "_format": "hh-sol-artifact-1",
  "contractName": "HydroChainToken",
  "sourceName": "contracts/GreenHydrogenToken.sol",
  "abi": [
    {
      "inputs": [],
      "stateMutability": "nonpayable",
      "type": "constructor"
    },
    {
      "anonymous": false,
      "inputs": [
        {
          "indexed": true,
          "internalType": "address",
          "name": "owner",
          "type": "address"
        },
        {
          "indexed": true,
          "internalType": "address",
          "name": "spender",
          "type": "address"
        },
        {
          "indexed": false,
          "internalType": "uint256",
          "name": "value",
          "type": "uint256"
        }
      ],
      "name": "Approval",
      "type": "event"
    },
    {
      "anonymous": false,
      "inputs": [
        {
          "indexed": true,
          "internalType": "address",
          "name": "previousOwner",
          "type": "address"
        },
        {
          "indexed": true,
          "internalType": "address",
          "name": "newOwner",
          "type": "address"
        }
      ],
      "name": "OwnershipTransferred",
      "type": "event"
    },
    {
      "anonymous": false,
      "inputs": [
        {
          "indexed": true,
          "internalType": "address",
          "name": "from",
          "type": "address"
        },
        {
          "indexed": true,
          "internalType": "address",
          "name": "to",
          "type": "address"
        },
        {
          "indexed": false,
          "internalType": "uint256",
          "name": "value",
          "type": "uint256"
        }
      ],
      "name": "Transfer",
      "type": "event"
    },
    {
      "inputs": [
        {
          "internalType": "address",
          "name": "owner",
          "type": "address"
        },
        {
          "internalType": "address",
          "name": "spender",
          "type": "address"
        }
      ],
      "name": "allowance",
      "outputs": [
        {
          "internalType": "uint256",
          "name": "",
          "type": "uint256"
        }
      ],
      "stateMutability": "view",
      "type": "function"
    },
    {
      "inputs": [
        {
          "internalType": "address",
          "name": "spender",
          "type": "address"
        },
        {
          "internalType": "uint256",
          "name": "amount",
          "type": "uint256"
        }
      ],
      "name": "approve",
      "outputs": [
        {
          "internalType": "bool",
          "name": "",
          "type": "bool"
        }
      ],
      "stateMutability": "nonpayable",
      "type": "function"
    },
    {
      "inputs": [
        {
          "internalType": "address",
          "name": "account",
          "type": "address"
        }
      ],
      "name": "balanceOf",
      "outputs": [
        {
          "internalType": "uint256",
          "name": "",
          "type": "uint256"
        }
      ],
      "stateMutability": "view",
      "type": "function"
    },
    {
      "inputs": [
        {
          "internalType": "uint256",
          "name": "amount",
          "type": "uint256"
        }
      ],
      "name": "burn",
      "outputs": [],
      "stateMutability": "nonpayable",
      "type": "function"
    },
    {
      "inputs": [
        {
          "internalType": "address",
          "name": "account",
          "type": "address"
        },
        {
          "internalType": "uint256",
          "name": "amount",
          "type": "uint256"
        }
      ],
      "name": "burnFrom",
      "outputs": [],
      "stateMutability": "nonpayable",
      "type": "function"
    },
    {
      "inputs": [],
      "name": "decimals",
      "outputs": [
        {
          "internalType": "uint8",
          "name": "",
          "type": "uint8"
        }
      ],
      "stateMutability": "view",
      "type": "function"
    },
    {
      "inputs": [
        {
          "internalType": "address",
          "name": "spender",
          "type": "address"
        },
        {
          "internalType": "uint256",
          "name": "subtractedValue",
          "type": "uint256"
        }
      ],
      "name": "decreaseAllowance",
      "outputs": [
        {
          "internalType": "bool",
          "name": "",
          "type": "bool"
        }
      ],
      "stateMutability": "nonpayable",
      "type": "function"
    },
    {
      "inputs": [],
      "name": "getTokenName",
      "outputs": [
        {
          "internalType": "string",
          "name": "",
          "type": "string"
        }
      ],
      "stateMutability": "view",
      "type": "function"
    },
    {
      "inputs": [],
      "name": "getTokenSymbol",
      "outputs": [
        {
          "internalType": "string",
          "name": "",
          "type": "string"
        }
      ],
      "stateMutability": "view",
      "type": "function"
    },
    {
      "inputs": [
        {
          "internalType": "address",
          "name": "spender",
          "type": "address"
        },
        {
          "internalType": "uint256",
          "name": "addedValue",
          "type": "uint256"
        }
      ],
      "name": "increaseAllowance",
      "outputs": [
        {
          "internalType": "bool",
          "name": "",
          "type": "bool"
        }
      ],
      "stateMutability": "nonpayable",
      "type": "function"
    },
    {
      "inputs": [
        {
          "internalType": "address",
          "name": "to",
          "type": "address"
        },
        {
          "internalType": "uint256",
          "name": "amount",
          "type": "uint256"
        }
      ],
      "name": "mint",
      "outputs": [],
      "stateMutability": "nonpayable",
      "type": "function"
    },
    {
      "inputs": [],
      "name": "name",
      "outputs": [
        {
          "internalType": "string",
          "name": "",
          "type": "string"
        }
      ],
      "stateMutability": "view",
      "type": "function"
    },
    {
      "inputs": [],
      "name": "owner",
      "outputs": [
        {
          "internalType": "address",
          "name": "",
          "type": "address"
        }
      ],
      "stateMutability": "view",
      "type": "function"
    },
    {
      "inputs": [],
      "name": "renounceOwnership",
      "outputs": [],
      "stateMutability": "nonpayable",
      "type": "function"
    },
    {
      "inputs": [],
      "name": "symbol",
      "outputs": [
        {
          "internalType": "string",
          "name": "",
          "type": "string"
        }
      ],
      "stateMutability": "view",
      "type": "function"
    },
    {
      "inputs": [],
      "name": "totalSupply",
      "outputs": [
        {
          "internalType": "uint256",
          "name": "",
          "type": "uint256"
        }
      ],
      "stateMutability": "view",
      "type": "function"
    },
    {
      "inputs": [
        {
          "internalType": "address",
          "name": "to",
          "type": "address"
        },
        {
          "internalType": "uint256",
          "name": "value",
          "type": "uint256"
        }
      ],
      "name": "transfer",
      "outputs": [
        {
          "internalType": "bool",
          "name": "",
          "type": "bool"
        }
      ],
      "stateMutability": "nonpayable",
      "type": "function"
    },
    {
      "inputs": [
        {
          "internalType": "address",
          "name": "from",
          "type": "address"
        },
        {
          "internalType": "address",
          "name": "to",
          "type": "address"
        },
        {
          "internalType": "uint256",
          "name": "value",
          "type": "uint256"
        }
      ],
      "name": "transferFrom",
      "outputs": [
        {
          "internalType": "bool",
          "name": "",
          "type": "bool"
        }
      ],
      "stateMutability": "nonpayable",
      "type": "function"
    },
    {
      "inputs": [
        {
          "internalType": "address",
          "name": "newOwner",
          "type": "address"
        }
      ],
      "name": "transferOwnership",
      "outputs": [],
      "stateMutability": "nonpayable",
      "type": "function"
    }
  ],
  "bytecode": "0x60806040523480156200001157600080fd5b506040518060400160405280600f81526020016e243cb23937a1b430b4b72a37b5b2b760891b815250604051806040016040528060038152602001621210d560ea1b815250816003908162000067919062000295565b50600462000076828262000295565b505050620000936200008d620000ae60201b60201c565b620000b2565b620000a8336801a055690d9db8000062000104565b62000389565b3390565b600580546001600160a01b038381166001600160a01b0319831681179093556040519116919082907f8be0079c531659141344cd1fd0a4f28419497f9722a3daafe3b4186f6b6457e090600090a35050565b6001600160a01b0382166200015f5760405162461bcd60e51b815260206004820152601f60248201527f45524332303a206d696e7420746f20746865207a65726f206164647265737300604482015260640160405180910390fd5b806002600082825462000173919062000361565b90915550506001600160a01b03821660009081526020819052604081208054839290620001a290849062000361565b90915550506040518181526001600160a01b038316906000907fddf252ad1be2c89b69c2b068fc378daa952ba7f163c4a11628f55a4df523b3ef9060200160405180910390a35050565b505050565b634e487b7160e01b600052604160045260246000fd5b600181811c908216806200021c57607f821691505b6020821081036200023d57634e487b7160e01b600052602260045260246000fd5b50919050565b601f821115620001ec57600081815260208120601f850160051c810160208610156200026c5750805b601f850160051c820191505b818110156200028d5782815560010162000278565b505050505050565b81516001600160401b03811115620002b157620002b1620001f1565b620002c981620002c2845462000207565b8462000243565b602080601f831160018114620003015760008415620002e85750858301515b600019600386901b1c1916600185901b1785556200028d565b600085815260208120601f198616915b82811015620003325788860151825594840194600190910190840162000311565b5085821015620003515787850151600019600388901b60f8161c191681555b5050505050600190811b01905550565b808201808211156200038357634e487b7160e01b600052601160045260246000fd5b92915050565b610eaa80620003996000396000f3fe608060405234801561001057600080fd5b50600436106101215760003560e01c8063715018a6116100ad578063a457c2d711610071578063a457c2d71461022f578063a9059cbb14610242578063dd62ed3e14610255578063f1850af81461028e578063f2fde38b1461029657600080fd5b8063715018a6146101e957806379cc6790146101f1578063862b092b146102045780638da5cb5b1461020c57806395d89b411461022757600080fd5b8063313ce567116100f4578063313ce5671461018c578063395093511461019b57806340c10f19146101ae57806342966c68146101c357806370a08231146101d657600080fd5b806306fdde0314610126578063095ea7b31461014457806318160ddd1461016757806323b872dd14610179575b600080fd5b61012e6102a9565b60405161013b9190610c1b565b60405180910390f35b610157610152366004610c85565b61033b565b604051901515815260200161013b565b6002545b60405190815260200161013b565b610157610187366004610caf565b610355565b6040516012815260200161013b565b6101576101a9366004610c85565b6103aa565b6101c16101bc366004610c85565b6103e9565b005b6101c16101d1366004610ceb565b610421565b61016b6101e4366004610d04565b61042e565b6101c161044c565b6101c16101ff366004610c85565b610482565b61012e610497565b6005546040516001600160a01b03909116815260200161013b565b61012e6104a6565b61015761023d366004610c85565b6104b5565b610157610250366004610c85565b610547565b61016b610263366004610d26565b6001600160a01b03918216600090815260016020908152604080832093909416825291909152205490565b61012e61057d565b6101c16102a4366004610d04565b610587565b6060600380546102b890610d59565b80601f01602080910402602001604051908101604052809291908181526020018280546102e490610d59565b80156103315780601f1061030657610100808354040283529160200191610331565b820191906000526020600020905b81548152906001019060200180831161031457829003601f168201915b5050505050905090565b60003361034981858561061f565b60019150505b92915050565b6000816103618561042e565b10156103885760405162461bcd60e51b815260040161037f90610d93565b60405180910390fd5b33610394858285610744565b61039f8585856107d6565b506001949350505050565b3360008181526001602090815260408083206001600160a01b038716845290915281205490919061034990829086906103e4908790610e19565b61061f565b6005546001600160a01b031633146104135760405162461bcd60e51b815260040161037f90610e2c565b61041d82826109a4565b5050565b61042b3382610a83565b50565b6001600160a01b03811660009081526020819052604081205461034f565b6005546001600160a01b031633146104765760405162461bcd60e51b815260040161037f90610e2c565b6104806000610bc9565b565b61048d823383610744565b61041d8282610a83565b60606104a16102a9565b905090565b6060600480546102b890610d59565b3360008181526001602090815260408083206001600160a01b03871684529091528120549091908381101561053a5760405162461bcd60e51b815260206004820152602560248201527f45524332303a2064656372656173656420616c6c6f77616e63652062656c6f77604482015264207a65726f60d81b606482015260840161037f565b61039f828686840361061f565b6000816105533361042e565b10156105715760405162461bcd60e51b815260040161037f90610d93565b336103498185856107d6565b60606104a16104a6565b6005546001600160a01b031633146105b15760405162461bcd60e51b815260040161037f90610e2c565b6001600160a01b0381166106165760405162461bcd60e51b815260206004820152602660248201527f4f776e61626c653a206e6577206f776e657220697320746865207a65726f206160448201526564647265737360d01b606482015260840161037f565b61042b81610bc9565b6001600160a01b0383166106815760405162461bcd60e51b8152602060048201526024808201527f45524332303a20617070726f76652066726f6d20746865207a65726f206164646044820152637265737360e01b606482015260840161037f565b6001600160a01b0382166106e25760405162461bcd60e51b815260206004820152602260248201527f45524332303a20617070726f766520746f20746865207a65726f206164647265604482015261737360f01b606482015260840161037f565b6001600160a01b0383811660008181526001602090815260408083209487168084529482529182902085905590518481527f8c5be1e5ebec7d5bd14f71427d1e84f3dd0314c0f7b2291e5b200ac8c7c3b92591015b60405180910390a3505050565b6001600160a01b0383811660009081526001602090815260408083209386168352929052205460001981146107d057818110156107c35760405162461bcd60e51b815260206004820152601d60248201527f45524332303a20696e73756666696369656e7420616c6c6f77616e6365000000604482015260640161037f565b6107d0848484840361061f565b50505050565b6001600160a01b03831661083a5760405162461bcd60e51b815260206004820152602560248201527f45524332303a207472616e736665722066726f6d20746865207a65726f206164604482015264647265737360d81b606482015260840161037f565b6001600160a01b03821661089c5760405162461bcd60e51b815260206004820152602360248201527f45524332303a207472616e7366657220746f20746865207a65726f206164647260448201526265737360e81b606482015260840161037f565b6001600160a01b038316600090815260208190526040902054818110156109145760405162461bcd60e51b815260206004820152602660248201527f45524332303a207472616e7366657220616d6f756e7420657863656564732062604482015265616c616e636560d01b606482015260840161037f565b6001600160a01b0380851660009081526020819052604080822085850390559185168152908120805484929061094b908490610e19565b92505081905550826001600160a01b0316846001600160a01b03167fddf252ad1be2c89b69c2b068fc378daa952ba7f163c4a11628f55a4df523b3ef8460405161099791815260200190565b60405180910390a36107d0565b6001600160a01b0382166109fa5760405162461bcd60e51b815260206004820152601f60248201527f45524332303a206d696e7420746f20746865207a65726f206164647265737300604482015260640161037f565b8060026000828254610a0c9190610e19565b90915550506001600160a01b03821660009081526020819052604081208054839290610a39908490610e19565b90915550506040518181526001600160a01b038316906000907fddf252ad1be2c89b69c2b068fc378daa952ba7f163c4a11628f55a4df523b3ef9060200160405180910390a35050565b6001600160a01b038216610ae35760405162461bcd60e51b815260206004820152602160248201527f45524332303a206275726e2066726f6d20746865207a65726f206164647265736044820152607360f81b606482015260840161037f565b6001600160a01b03821660009081526020819052604090205481811015610b575760405162461bcd60e51b815260206004820152602260248201527f45524332303a206275726e20616d6f756e7420657863656564732062616c616e604482015261636560f01b606482015260840161037f565b6001600160a01b0383166000908152602081905260408120838303905560028054849290610b86908490610e61565b90915550506040518281526000906001600160a01b038516907fddf252ad1be2c89b69c2b068fc378daa952ba7f163c4a11628f55a4df523b3ef90602001610737565b600580546001600160a01b038381166001600160a01b0319831681179093556040519116919082907f8be0079c531659141344cd1fd0a4f28419497f9722a3daafe3b4186f6b6457e090600090a35050565b600060208083528351808285015260005b81811015610c4857858101830151858201604001528201610c2c565b506000604082860101526040601f19601f8301168501019250505092915050565b80356001600160a01b0381168114610c8057600080fd5b919050565b60008060408385031215610c9857600080fd5b610ca183610c69565b946020939093013593505050565b600080600060608486031215610cc457600080fd5b610ccd84610c69565b9250610cdb60208501610c69565b9150604084013590509250925092565b600060208284031215610cfd57600080fd5b5035919050565b600060208284031215610d1657600080fd5b610d1f82610c69565b9392505050565b60008060408385031215610d3957600080fd5b610d4283610c69565b9150610d5060208401610c69565b90509250929050565b600181811c90821680610d6d57607f821691505b602082108103610d8d57634e487b7160e01b600052602260045260246000fd5b50919050565b6020808252604a908201527f7472616e7366657220616d6f756e74206578636565647320796f75722062616c60408201527f616e63652c2054727920616761696e2077697468206c657373207472616e7366606082015269195c88185b5b5bdd5b9d60b21b608082015260a00190565b634e487b7160e01b600052601160045260246000fd5b8082018082111561034f5761034f610e03565b6020808252818101527f4f776e61626c653a2063616c6c6572206973206e6f7420746865206f776e6572604082015260600190565b8181038181111561034f5761034f610e0356fea2646970667358221220a9b062f38870516efb3953565ebc1b901ad7fa5e10153241abd8e24dfe8f90cb64736f6c63430008140033",
  "linkReferences": {},
  "deployedLinkReferences": {}
}