{
  "_format": "hh-sol-artifact-1",
  "contractName": "NFTMarketplace",
  "sourceName": "contracts/NFTMarketplace.sol",
  "abi": [
    {
      "inputs": [
        {
          "internalType": "address",
          "name": "_paymentToken",
          "type": "address"
        }
      ],
      "stateMutability": "nonpayable",
      "type": "constructor"
    },
    {
      "anonymous": false,
      "inputs": [
        {
          "indexed": true,
          "internalType": "address",
          "name": "owner",
          "type": "address"
        },
        {
          "indexed": true,
          "internalType": "address",
          "name": "approved",
          "type": "address"
        },
        {
          "indexed": true,
          "internalType": "uint256",
          "name": "tokenId",
          "type": "uint256"
        }
      ],
      "name": "Approval",
      "type": "event"
    },
    {
      "anonymous": false,
      "inputs": [
        {
          "indexed": true,
          "internalType": "address",
          "name": "owner",
          "type": "address"
        },
        {
          "indexed": true,
          "internalType": "address",
          "name": "operator",
          "type": "address"
        },
        {
          "indexed": false,
          "internalType": "bool",
          "name": "approved",
          "type": "bool"
        }
      ],
      "name": "ApprovalForAll",
      "type": "event"
    },
    {
      "anonymous": false,
      "inputs": [
        {
          "indexed": true,
          "internalType": "uint256",
          "name": "tokenId",
          "type": "uint256"
        },
        {
          "indexed": false,
          "internalType": "address",
          "name": "seller",
          "type": "address"
        },
        {
          "indexed": false,
          "internalType": "address",
          "name": "owner",
          "type": "address"
        },
        {
          "indexed": false,
          "internalType": "uint256",
          "name": "price",
          "type": "uint256"
        },
        {
          "indexed": false,
          "internalType": "bool",
          "name": "sold",
          "type": "bool"
        }
      ],
      "name": "MarketItemCreated",
      "type": "event"
    },
    {
      "anonymous": false,
      "inputs": [
        {
          "indexed": true,
          "internalType": "address",
          "name": "from",
          "type": "address"
        },
        {
          "indexed": true,
          "internalType": "address",
          "name": "to",
          "type": "address"
        },
        {
          "indexed": true,
          "internalType": "uint256",
          "name": "tokenId",
          "type": "uint256"
        }
      ],
      "name": "Transfer",
      "type": "event"
    },
    {
      "inputs": [
        {
          "internalType": "address",
          "name": "to",
          "type": "address"
        },
        {
          "internalType": "uint256",
          "name": "tokenId",
          "type": "uint256"
        }
      ],
      "name": "approve",
      "outputs": [],
      "stateMutability": "nonpayable",
      "type": "function"
    },
    {
      "inputs": [
        {
          "internalType": "address",
          "name": "owner",
          "type": "address"
        }
      ],
      "name": "balanceOf",
      "outputs": [
        {
          "internalType": "uint256",
          "name": "",
          "type": "uint256"
        }
      ],
      "stateMutability": "view",
      "type": "function"
    },
    {
      "inputs": [
        {
          "internalType": "uint256",
          "name": "tokenId",
          "type": "uint256"
        }
      ],
      "name": "createMarketSale",
      "outputs": [],
      "stateMutability": "payable",
      "type": "function"
    },
    {
      "inputs": [
        {
          "internalType": "string",
          "name": "tokenURI",
          "type": "string"
        },
        {
          "internalType": "uint256",
          "name": "price",
          "type": "uint256"
        }
      ],
      "name": "createToken",
      "outputs": [
        {
          "internalType": "uint256",
          "name": "",
          "type": "uint256"
        }
      ],
      "stateMutability": "payable",
      "type": "function"
    },
    {
      "inputs": [],
      "name": "fetchItemsListed",
      "outputs": [
        {
          "components": [
            {
              "internalType": "uint256",
              "name": "tokenId",
              "type": "uint256"
            },
            {
              "internalType": "address payable",
              "name": "seller",
              "type": "address"
            },
            {
              "internalType": "address payable",
              "name": "owner",
              "type": "address"
            },
            {
              "internalType": "uint256",
              "name": "price",
              "type": "uint256"
            },
            {
              "internalType": "bool",
              "name": "sold",
              "type": "bool"
            }
          ],
          "internalType": "struct NFTMarketplace.MarketItem[]",
          "name": "",
          "type": "tuple[]"
        }
      ],
      "stateMutability": "view",
      "type": "function"
    },
    {
      "inputs": [],
      "name": "fetchMarketItems",
      "outputs": [
        {
          "components": [
            {
              "internalType": "uint256",
              "name": "tokenId",
              "type": "uint256"
            },
            {
              "internalType": "address payable",
              "name": "seller",
              "type": "address"
            },
            {
              "internalType": "address payable",
              "name": "owner",
              "type": "address"
            },
            {
              "internalType": "uint256",
              "name": "price",
              "type": "uint256"
            },
            {
              "internalType": "bool",
              "name": "sold",
              "type": "bool"
            }
          ],
          "internalType": "struct NFTMarketplace.MarketItem[]",
          "name": "",
          "type": "tuple[]"
        }
      ],
      "stateMutability": "view",
      "type": "function"
    },
    {
      "inputs": [],
      "name": "fetchMyNFTs",
      "outputs": [
        {
          "components": [
            {
              "internalType": "uint256",
              "name": "tokenId",
              "type": "uint256"
            },
            {
              "internalType": "address payable",
              "name": "seller",
              "type": "address"
            },
            {
              "internalType": "address payable",
              "name": "owner",
              "type": "address"
            },
            {
              "internalType": "uint256",
              "name": "price",
              "type": "uint256"
            },
            {
              "internalType": "bool",
              "name": "sold",
              "type": "bool"
            }
          ],
          "internalType": "struct NFTMarketplace.MarketItem[]",
          "name": "",
          "type": "tuple[]"
        }
      ],
      "stateMutability": "view",
      "type": "function"
    },
    {
      "inputs": [
        {
          "internalType": "uint256",
          "name": "tokenId",
          "type": "uint256"
        }
      ],
      "name": "getApproved",
      "outputs": [
        {
          "internalType": "address",
          "name": "",
          "type": "address"
        }
      ],
      "stateMutability": "view",
      "type": "function"
    },
    {
      "inputs": [],
      "name": "getListingPrice",
      "outputs": [
        {
          "internalType": "uint256",
          "name": "",
          "type": "uint256"
        }
      ],
      "stateMutability": "view",
      "type": "function"
    },
    {
      "inputs": [
        {
          "internalType": "address",
          "name": "owner",
          "type": "address"
        },
        {
          "internalType": "address",
          "name": "operator",
          "type": "address"
        }
      ],
      "name": "isApprovedForAll",
      "outputs": [
        {
          "internalType": "bool",
          "name": "",
          "type": "bool"
        }
      ],
      "stateMutability": "view",
      "type": "function"
    },
    {
      "inputs": [],
      "name": "name",
      "outputs": [
        {
          "internalType": "string",
          "name": "",
          "type": "string"
        }
      ],
      "stateMutability": "view",
      "type": "function"
    },
    {
      "inputs": [
        {
          "internalType": "uint256",
          "name": "tokenId",
          "type": "uint256"
        }
      ],
      "name": "ownerOf",
      "outputs": [
        {
          "internalType": "address",
          "name": "",
          "type": "address"
        }
      ],
      "stateMutability": "view",
      "type": "function"
    },
    {
      "inputs": [],
      "name": "paymentToken",
      "outputs": [
        {
          "internalType": "contract IERC20",
          "name": "",
          "type": "address"
        }
      ],
      "stateMutability": "view",
      "type": "function"
    },
    {
      "inputs": [
        {
          "internalType": "uint256",
          "name": "tokenId",
          "type": "uint256"
        },
        {
          "internalType": "uint256",
          "name": "price",
          "type": "uint256"
        }
      ],
      "name": "resellToken",
      "outputs": [],
      "stateMutability": "payable",
      "type": "function"
    },
    {
      "inputs": [
        {
          "internalType": "address",
          "name": "from",
          "type": "address"
        },
        {
          "internalType": "address",
          "name": "to",
          "type": "address"
        },
        {
          "internalType": "uint256",
          "name": "tokenId",
          "type": "uint256"
        }
      ],
      "name": "safeTransferFrom",
      "outputs": [],
      "stateMutability": "nonpayable",
      "type": "function"
    },
    {
      "inputs": [
        {
          "internalType": "address",
          "name": "from",
          "type": "address"
        },
        {
          "internalType": "address",
          "name": "to",
          "type": "address"
        },
        {
          "internalType": "uint256",
          "name": "tokenId",
          "type": "uint256"
        },
        {
          "internalType": "bytes",
          "name": "_data",
          "type": "bytes"
        }
      ],
      "name": "safeTransferFrom",
      "outputs": [],
      "stateMutability": "nonpayable",
      "type": "function"
    },
    {
      "inputs": [
        {
          "internalType": "address",
          "name": "operator",
          "type": "address"
        },
        {
          "internalType": "bool",
          "name": "approved",
          "type": "bool"
        }
      ],
      "name": "setApprovalForAll",
      "outputs": [],
      "stateMutability": "nonpayable",
      "type": "function"
    },
    {
      "inputs": [
        {
          "internalType": "bytes4",
          "name": "interfaceId",
          "type": "bytes4"
        }
      ],
      "name": "supportsInterface",
      "outputs": [
        {
          "internalType": "bool",
          "name": "",
          "type": "bool"
        }
      ],
      "stateMutability": "view",
      "type": "function"
    },
    {
      "inputs": [],
      "name": "symbol",
      "outputs": [
        {
          "internalType": "string",
          "name": "",
          "type": "string"
        }
      ],
      "stateMutability": "view",
      "type": "function"
    },
    {
      "inputs": [
        {
          "internalType": "uint256",
          "name": "tokenId",
          "type": "uint256"
        }
      ],
      "name": "tokenURI",
      "outputs": [
        {
          "internalType": "string",
          "name": "",
          "type": "string"
        }
      ],
      "stateMutability": "view",
      "type": "function"
    },
    {
      "inputs": [
        {
          "internalType": "address",
          "name": "from",
          "type": "address"
        },
        {
          "internalType": "address",
          "name": "to",
          "type": "address"
        },
        {
          "internalType": "uint256",
          "name": "tokenId",
          "type": "uint256"
        }
      ],
      "name": "transferFrom",
      "outputs": [],
      "stateMutability": "nonpayable",
      "type": "function"
    },
    {
      "inputs": [
        {
          "internalType": "uint256",
          "name": "_listingPrice",
          "type": "uint256"
        }
      ],
      "name": "updateListingPrice",
      "outputs": [],
      "stateMutability": "payable",
      "type": "function"
    }
  ],
  "bytecode": "0x60806040526601c6bf526340006009553480156200001c57600080fd5b506040516200262d3803806200262d8339810160408190526200003f91620000e9565b6040518060400160405280601381526020017f487964726f67656e4d61726b6574506c61636500000000000000000000000000815250604051806040016040528060038152602001620484d560ec1b8152508160009081620000a29190620001c0565b506001620000b18282620001c0565b5050600a8054336001600160a01b031991821617909155600b80549091166001600160a01b039390931692909217909155506200028c565b600060208284031215620000fc57600080fd5b81516001600160a01b03811681146200011457600080fd5b9392505050565b634e487b7160e01b600052604160045260246000fd5b600181811c908216806200014657607f821691505b6020821081036200016757634e487b7160e01b600052602260045260246000fd5b50919050565b601f821115620001bb57600081815260208120601f850160051c81016020861015620001965750805b601f850160051c820191505b81811015620001b757828155600101620001a2565b5050505b505050565b81516001600160401b03811115620001dc57620001dc6200011b565b620001f481620001ed845462000131565b846200016d565b602080601f8311600181146200022c5760008415620002135750858301515b600019600386901b1c1916600185901b178555620001b7565b600085815260208120601f198616915b828110156200025d578886015182559484019460019091019084016200023c565b50858210156200027c5787850151600019600388901b60f8161c191681555b5050505050600190811b01905550565b612391806200029c6000396000f3fe6080604052600436106101355760003560e01c80636352211e116100ab578063ae677aa31161006f578063ae677aa31461033e578063b88d4fde14610351578063be9af53614610371578063c87b56dd14610384578063e219fc75146103a4578063e985e9c5146103b757600080fd5b80636352211e146102b657806370a08231146102d657806372b3b620146102f657806395d89b4114610309578063a22cb4651461031e57600080fd5b806312e85585116100fd57806312e855851461020d578063202e37401461022c57806323b872dd146102415780633013ce291461026157806342842e0e1461028157806345f8fa80146102a157600080fd5b806301ffc9a71461013a57806306fdde031461016f578063081812fc14610191578063095ea7b3146101c95780630f08efe0146101eb575b600080fd5b34801561014657600080fd5b5061015a610155366004611c56565b610400565b60405190151581526020015b60405180910390f35b34801561017b57600080fd5b50610184610452565b6040516101669190611cc3565b34801561019d57600080fd5b506101b16101ac366004611cd6565b6104e4565b6040516001600160a01b039091168152602001610166565b3480156101d557600080fd5b506101e96101e4366004611d0b565b610571565b005b3480156101f757600080fd5b50610200610686565b6040516101669190611d35565b34801561021957600080fd5b506009545b604051908152602001610166565b34801561023857600080fd5b5061020061081d565b34801561024d57600080fd5b506101e961025c366004611db1565b6109f1565b34801561026d57600080fd5b50600b546101b1906001600160a01b031681565b34801561028d57600080fd5b506101e961029c366004611db1565b610a22565b3480156102ad57600080fd5b50610200610a3d565b3480156102c257600080fd5b506101b16102d1366004611cd6565b610c11565b3480156102e257600080fd5b5061021e6102f1366004611ded565b610c88565b61021e610304366004611e94565b610d0f565b34801561031557600080fd5b50610184610d51565b34801561032a57600080fd5b506101e9610339366004611eed565b610d60565b6101e961034c366004611cd6565b610d6f565b34801561035d57600080fd5b506101e961036c366004611f29565b610de7565b6101e961037f366004611cd6565b610e1f565b34801561039057600080fd5b5061018461039f366004611cd6565b610f84565b6101e96103b2366004611fa5565b6110fa565b3480156103c357600080fd5b5061015a6103d2366004611fc7565b6001600160a01b03918216600090815260056020908152604080832093909416825291909152205460ff1690565b60006001600160e01b031982166380ac58cd60e01b148061043157506001600160e01b03198216635b5e139f60e01b145b8061044c57506301ffc9a760e01b6001600160e01b03198316145b92915050565b60606000805461046190611ffa565b80601f016020809104026020016040519081016040528092919081815260200182805461048d90611ffa565b80156104da5780601f106104af576101008083540402835291602001916104da565b820191906000526020600020905b8154815290600101906020018083116104bd57829003601f168201915b5050505050905090565b60006104ef826111f2565b6105555760405162461bcd60e51b815260206004820152602c60248201527f4552433732313a20617070726f76656420717565727920666f72206e6f6e657860448201526b34b9ba32b73a103a37b5b2b760a11b60648201526084015b60405180910390fd5b506000908152600460205260409020546001600160a01b031690565b600061057c82610c11565b9050806001600160a01b0316836001600160a01b0316036105e95760405162461bcd60e51b815260206004820152602160248201527f4552433732313a20617070726f76616c20746f2063757272656e74206f776e656044820152603960f91b606482015260840161054c565b336001600160a01b0382161480610605575061060581336103d2565b6106775760405162461bcd60e51b815260206004820152603860248201527f4552433732313a20617070726f76652063616c6c6572206973206e6f74206f7760448201527f6e6572206e6f7220617070726f76656420666f7220616c6c0000000000000000606482015260840161054c565b610681838361120f565b505050565b6060600061069360075490565b905060006106a060085490565b6007546106ad919061204a565b90506000808267ffffffffffffffff8111156106cb576106cb611e08565b60405190808252806020026020018201604052801561072457816020015b6040805160a0810182526000808252602080830182905292820181905260608201819052608082015282526000199092019101816106e95790505b50905060005b848110156108145730600c600061074284600161205d565b81526020810191909152604001600020600201546001600160a01b03160361080257600061077182600161205d565b6000818152600c6020908152604091829020825160a0810184528154815260018201546001600160a01b039081169382019390935260028201549092169282019290925260038201546060820152600482015460ff1615156080820152855192935090918590879081106107e7576107e7612070565b60209081029190910101526107fd60018661205d565b945050505b8061080c81612086565b91505061072a565b50949350505050565b6060600061082a60075490565b905060008060005b8381101561088c5733600c600061084a84600161205d565b81526020810191909152604001600020600201546001600160a01b03160361087a5761087760018461205d565b92505b8061088481612086565b915050610832565b5060008267ffffffffffffffff8111156108a8576108a8611e08565b60405190808252806020026020018201604052801561090157816020015b6040805160a0810182526000808252602080830182905292820181905260608201819052608082015282526000199092019101816108c65790505b50905060005b848110156108145733600c600061091f84600161205d565b81526020810191909152604001600020600201546001600160a01b0316036109df57600061094e82600161205d565b6000818152600c6020908152604091829020825160a0810184528154815260018201546001600160a01b039081169382019390935260028201549092169282019290925260038201546060820152600482015460ff1615156080820152855192935090918590879081106109c4576109c4612070565b60209081029190910101526109da60018661205d565b945050505b806109e981612086565b915050610907565b6109fb338261127d565b610a175760405162461bcd60e51b815260040161054c9061209f565b610681838383611363565b61068183838360405180602001604052806000815250610de7565b60606000610a4a60075490565b905060008060005b83811015610aac5733600c6000610a6a84600161205d565b81526020810191909152604001600020600101546001600160a01b031603610a9a57610a9760018461205d565b92505b80610aa481612086565b915050610a52565b5060008267ffffffffffffffff811115610ac857610ac8611e08565b604051908082528060200260200182016040528015610b2157816020015b6040805160a081018252600080825260208083018290529282018190526060820181905260808201528252600019909201910181610ae65790505b50905060005b848110156108145733600c6000610b3f84600161205d565b81526020810191909152604001600020600101546001600160a01b031603610bff576000610b6e82600161205d565b6000818152600c6020908152604091829020825160a0810184528154815260018201546001600160a01b039081169382019390935260028201549092169282019290925260038201546060820152600482015460ff161515608082015285519293509091859087908110610be457610be4612070565b6020908102919091010152610bfa60018661205d565b945050505b80610c0981612086565b915050610b27565b6000818152600260205260408120546001600160a01b03168061044c5760405162461bcd60e51b815260206004820152602960248201527f4552433732313a206f776e657220717565727920666f72206e6f6e657869737460448201526832b73a103a37b5b2b760b91b606482015260840161054c565b60006001600160a01b038216610cf35760405162461bcd60e51b815260206004820152602a60248201527f4552433732313a2062616c616e636520717565727920666f7220746865207a65604482015269726f206164647265737360b01b606482015260840161054c565b506001600160a01b031660009081526003602052604090205490565b6000610d1f600780546001019055565b6000610d2a60075490565b9050610d3633826114ff565b610d408185611632565b610d4a81846116b6565b9392505050565b60606001805461046190611ffa565b610d6b33838361180c565b5050565b600a546001600160a01b03163314610de25760405162461bcd60e51b815260206004820152603060248201527f4f6e6c79206d61726b6574706c616365206f776e65722063616e20757064617460448201526f32903634b9ba34b73390383934b1b29760811b606482015260840161054c565b600955565b610df1338361127d565b610e0d5760405162461bcd60e51b815260040161054c9061209f565b610e19848484846118da565b50505050565b6000818152600c6020526040902060038101546001909101546001600160a01b0316348214610eb8576040805162461bcd60e51b81526020600482015260248101919091527f506c65617365207375626d6974207468652061736b696e67207072696365206960448201527f6e206f7264657220746f20636f6d706c65746520746865207075726368617365606482015260840161054c565b6000838152600c602052604090206002810180546001600160a01b0319908116331790915560048201805460ff1916600190811790915590910180549091169055610f07600880546001019055565b610f12303385611363565b600a546009546040516001600160a01b039092169181156108fc0291906000818181858888f19350505050158015610f4e573d6000803e3d6000fd5b506040516001600160a01b038216903480156108fc02916000818181858888f19350505050158015610e19573d6000803e3d6000fd5b6060610f8f826111f2565b610ff55760405162461bcd60e51b815260206004820152603160248201527f45524337323155524953746f726167653a2055524920717565727920666f72206044820152703737b732bc34b9ba32b73a103a37b5b2b760791b606482015260840161054c565b6000828152600660205260408120805461100e90611ffa565b80601f016020809104026020016040519081016040528092919081815260200182805461103a90611ffa565b80156110875780601f1061105c57610100808354040283529160200191611087565b820191906000526020600020905b81548152906001019060200180831161106a57829003601f168201915b5050505050905060006110a560408051602081019091526000815290565b905080516000036110b7575092915050565b8151156110e95780826040516020016110d19291906120f0565b60405160208183030381529060405292505050919050565b6110f28461190d565b949350505050565b6000828152600c60205260409020600201546001600160a01b031633146111765760405162461bcd60e51b815260206004820152602a60248201527f4f6e6c79206974656d206f776e65722063616e20706572666f726d20746869736044820152691037b832b930ba34b7b760b11b606482015260840161054c565b60095434146111975760405162461bcd60e51b815260040161054c9061211f565b6000828152600c6020526040902060048101805460ff19169055600381018290556001810180546001600160a01b0319908116331790915560029091018054909116301790556111e760086119e4565b610d6b333084611363565b6000908152600260205260409020546001600160a01b0316151590565b600081815260046020526040902080546001600160a01b0319166001600160a01b038416908117909155819061124482610c11565b6001600160a01b03167f8c5be1e5ebec7d5bd14f71427d1e84f3dd0314c0f7b2291e5b200ac8c7c3b92560405160405180910390a45050565b6000611288826111f2565b6112e95760405162461bcd60e51b815260206004820152602c60248201527f4552433732313a206f70657261746f7220717565727920666f72206e6f6e657860448201526b34b9ba32b73a103a37b5b2b760a11b606482015260840161054c565b60006112f483610c11565b9050806001600160a01b0316846001600160a01b0316148061132f5750836001600160a01b0316611324846104e4565b6001600160a01b0316145b806110f257506001600160a01b0380821660009081526005602090815260408083209388168352929052205460ff166110f2565b826001600160a01b031661137682610c11565b6001600160a01b0316146113da5760405162461bcd60e51b815260206004820152602560248201527f4552433732313a207472616e736665722066726f6d20696e636f72726563742060448201526437bbb732b960d91b606482015260840161054c565b6001600160a01b03821661143c5760405162461bcd60e51b8152602060048201526024808201527f4552433732313a207472616e7366657220746f20746865207a65726f206164646044820152637265737360e01b606482015260840161054c565b61144760008261120f565b6001600160a01b038316600090815260036020526040812080546001929061147090849061204a565b90915550506001600160a01b038216600090815260036020526040812080546001929061149e90849061205d565b909155505060008181526002602052604080822080546001600160a01b0319166001600160a01b0386811691821790925591518493918716917fddf252ad1be2c89b69c2b068fc378daa952ba7f163c4a11628f55a4df523b3ef91a4505050565b6001600160a01b0382166115555760405162461bcd60e51b815260206004820181905260248201527f4552433732313a206d696e7420746f20746865207a65726f2061646472657373604482015260640161054c565b61155e816111f2565b156115ab5760405162461bcd60e51b815260206004820152601c60248201527f4552433732313a20746f6b656e20616c7265616479206d696e74656400000000604482015260640161054c565b6001600160a01b03821660009081526003602052604081208054600192906115d490849061205d565b909155505060008181526002602052604080822080546001600160a01b0319166001600160a01b03861690811790915590518392907fddf252ad1be2c89b69c2b068fc378daa952ba7f163c4a11628f55a4df523b3ef908290a45050565b61163b826111f2565b61169e5760405162461bcd60e51b815260206004820152602e60248201527f45524337323155524953746f726167653a2055524920736574206f66206e6f6e60448201526d32bc34b9ba32b73a103a37b5b2b760911b606482015260840161054c565b600082815260066020526040902061068182826121b1565b600081116117065760405162461bcd60e51b815260206004820152601c60248201527f5072696365206d757374206265206174206c6561737420312077656900000000604482015260640161054c565b60095434146117275760405162461bcd60e51b815260040161054c9061211f565b6040805160a08101825283815233602080830182815230848601818152606086018881526000608088018181528b8252600c909652979097209551865591516001860180546001600160a01b03199081166001600160a01b0393841617909155925160028701805490941691161790915593516003840155516004909201805460ff1916921515929092179091556117bf9184611363565b604080513381523060208201529081018290526000606082015282907fb640004f1d14576d0c209e240cad0410e0d8c0c33a09375861fbadae2588a98d9060800160405180910390a25050565b816001600160a01b0316836001600160a01b03160361186d5760405162461bcd60e51b815260206004820152601960248201527f4552433732313a20617070726f766520746f2063616c6c657200000000000000604482015260640161054c565b6001600160a01b03838116600081815260056020908152604080832094871680845294825291829020805460ff191686151590811790915591519182527f17307eab39ab6107e8899845ad3d59bd9653f200f220920489ca2b5937696c31910160405180910390a3505050565b6118e5848484611363565b6118f184848484611a3b565b610e195760405162461bcd60e51b815260040161054c90612271565b6060611918826111f2565b61197c5760405162461bcd60e51b815260206004820152602f60248201527f4552433732314d657461646174613a2055524920717565727920666f72206e6f60448201526e3732bc34b9ba32b73a103a37b5b2b760891b606482015260840161054c565b600061199360408051602081019091526000815290565b905060008151116119b35760405180602001604052806000815250610d4a565b806119bd84611b3c565b6040516020016119ce9291906120f0565b6040516020818303038152906040529392505050565b805480611a335760405162461bcd60e51b815260206004820152601b60248201527f436f756e7465723a2064656372656d656e74206f766572666c6f770000000000604482015260640161054c565b600019019055565b60006001600160a01b0384163b15611b3157604051630a85bd0160e11b81526001600160a01b0385169063150b7a0290611a7f9033908990889088906004016122c3565b6020604051808303816000875af1925050508015611aba575060408051601f3d908101601f19168201909252611ab791810190612300565b60015b611b17573d808015611ae8576040519150601f19603f3d011682016040523d82523d6000602084013e611aed565b606091505b508051600003611b0f5760405162461bcd60e51b815260040161054c90612271565b805181602001fd5b6001600160e01b031916630a85bd0160e11b1490506110f2565b506001949350505050565b606081600003611b635750506040805180820190915260018152600360fc1b602082015290565b8160005b8115611b8d5780611b7781612086565b9150611b869050600a83612333565b9150611b67565b60008167ffffffffffffffff811115611ba857611ba8611e08565b6040519080825280601f01601f191660200182016040528015611bd2576020820181803683370190505b5090505b84156110f257611be760018361204a565b9150611bf4600a86612347565b611bff90603061205d565b60f81b818381518110611c1457611c14612070565b60200101906001600160f81b031916908160001a905350611c36600a86612333565b9450611bd6565b6001600160e01b031981168114611c5357600080fd5b50565b600060208284031215611c6857600080fd5b8135610d4a81611c3d565b60005b83811015611c8e578181015183820152602001611c76565b50506000910152565b60008151808452611caf816020860160208601611c73565b601f01601f19169290920160200192915050565b602081526000610d4a6020830184611c97565b600060208284031215611ce857600080fd5b5035919050565b80356001600160a01b0381168114611d0657600080fd5b919050565b60008060408385031215611d1e57600080fd5b611d2783611cef565b946020939093013593505050565b602080825282518282018190526000919060409081850190868401855b82811015611da457815180518552868101516001600160a01b03908116888701528682015116868601526060808201519086015260809081015115159085015260a09093019290850190600101611d52565b5091979650505050505050565b600080600060608486031215611dc657600080fd5b611dcf84611cef565b9250611ddd60208501611cef565b9150604084013590509250925092565b600060208284031215611dff57600080fd5b610d4a82611cef565b634e487b7160e01b600052604160045260246000fd5b600067ffffffffffffffff80841115611e3957611e39611e08565b604051601f8501601f19908116603f01168101908282118183101715611e6157611e61611e08565b81604052809350858152868686011115611e7a57600080fd5b858560208301376000602087830101525050509392505050565b60008060408385031215611ea757600080fd5b823567ffffffffffffffff811115611ebe57600080fd5b8301601f81018513611ecf57600080fd5b611ede85823560208401611e1e565b95602094909401359450505050565b60008060408385031215611f0057600080fd5b611f0983611cef565b915060208301358015158114611f1e57600080fd5b809150509250929050565b60008060008060808587031215611f3f57600080fd5b611f4885611cef565b9350611f5660208601611cef565b925060408501359150606085013567ffffffffffffffff811115611f7957600080fd5b8501601f81018713611f8a57600080fd5b611f9987823560208401611e1e565b91505092959194509250565b60008060408385031215611fb857600080fd5b50508035926020909101359150565b60008060408385031215611fda57600080fd5b611fe383611cef565b9150611ff160208401611cef565b90509250929050565b600181811c9082168061200e57607f821691505b60208210810361202e57634e487b7160e01b600052602260045260246000fd5b50919050565b634e487b7160e01b600052601160045260246000fd5b8181038181111561044c5761044c612034565b8082018082111561044c5761044c612034565b634e487b7160e01b600052603260045260246000fd5b60006001820161209857612098612034565b5060010190565b60208082526031908201527f4552433732313a207472616e736665722063616c6c6572206973206e6f74206f6040820152701ddb995c881b9bdc88185c1c1c9bdd9959607a1b606082015260800190565b60008351612102818460208801611c73565b835190830190612116818360208801611c73565b01949350505050565b60208082526024908201527f5072696365206d75737420626520657175616c20746f206c697374696e6720706040820152637269636560e01b606082015260800190565b601f82111561068157600081815260208120601f850160051c8101602086101561218a5750805b601f850160051c820191505b818110156121a957828155600101612196565b505050505050565b815167ffffffffffffffff8111156121cb576121cb611e08565b6121df816121d98454611ffa565b84612163565b602080601f83116001811461221457600084156121fc5750858301515b600019600386901b1c1916600185901b1785556121a9565b600085815260208120601f198616915b8281101561224357888601518255948401946001909101908401612224565b50858210156122615787850151600019600388901b60f8161c191681555b5050505050600190811b01905550565b60208082526032908201527f4552433732313a207472616e7366657220746f206e6f6e20455243373231526560408201527131b2b4bb32b91034b6b83632b6b2b73a32b960711b606082015260800190565b6001600160a01b03858116825284166020820152604081018390526080606082018190526000906122f690830184611c97565b9695505050505050565b60006020828403121561231257600080fd5b8151610d4a81611c3d565b634e487b7160e01b600052601260045260246000fd5b6000826123425761234261231d565b500490565b6000826123565761235661231d565b50069056fea26469706673582212201ffb745561d270b84383f0cc44799c3c14733df93003c46b628ee466aa44376864736f6c63430008140033",
  "linkReferences": {},
  "deployedLinkReferences": {}
}